:100000000C9462000C948A000C948A000C948A0070
:100010000C948A000C948A000C948A000C948A0038
:100020000C948A000C948A000C948A000C948A0028
:100030000C948A000C948A000C948A000C948A0018
:100040000C944C090C948A000C941A090C94F40832
:100050000C948A000C948A000C948A000C948A00F8
:100060000C9496090C948A000000000024002700DC
:100070002A0000000000250028002B0000000008D6
:10008000000201000003040700000000000000005F
:1000900000000000230026002900040404040404D6
:1000A0000404020202020202030303030303010227
:1000B00004081020408001020408102001020408F6
:1000C0001020B50A11241FBECFEFD8E0DEBFCDBF90
:1000D00015E0A0E0B1E0EAEFFEE202C005900D926B
:1000E000A03EB107D9F727E0A0EEB5E001C01D9210
:1000F000A03AB207E1F710E0C2E6D0E004C02197D1
:10010000FE010E94C112C136D107C9F70E94410BFE
:100110000C947B170C940000CF92DF92EF92FF9229
:10012000CF93DF93B0918407A0E08111AB2F809132
:10013000850790E0880F991FAC0140575F4FC09032
:100140008A07D0908B07E0908C07F0908D0730E005
:1001500020E0FA01C591D491E881B90190E080E0F6
:10016000EB23EA130AC02F5F3F4F6C157D058E0508
:100170009F0578F36FEF7FEFCB01DF91CF91FF9079
:10018000EF90DF90CF900895CF92DF92EF92FF92A1
:10019000CF93809183078C3009F44FC038F48B30B3
:1001A000F1F060E070E080EC9FE741C08551823063
:1001B000C0F7C0917F076C2F70E0762F6627662707
:1001C0007F7780918007682B90E080E00E94DC0FB1
:1001D0002DEC3CEC4CEC5DE30E943D104AC060917C
:1001E0007F0770E090E080E00E94DC0F6B017C01F3
:1001F000C0918007C7FF0AC0AC019B0160E070E0BE
:1002000080E89FEB0E9495116B017C01CF706C2FF1
:1002100070E090E080E00E94DE0F2DEC3CEC4CECB6
:100220005DE30E943D10A70196010E949611CF91B7
:10023000FF90EF90DF90CF900895C0917F076C2FD3
:1002400070E090E080E00E94DC0F6B017C01609127
:1002500080076F7070E090E080E00E94DE0F2DEC70
:100260003CEC4CEC5DE30E943D10A70196010E941E
:100270009611C7FFDCCF9058DACF08950895AF925A
:10028000BF92CF92DF92EF92FF920F931F93CF9383
:10029000DF936C017B018B01040F151FEB015E01E5
:1002A000AE18BF08C017D10759F06991D601ED917A
:1002B000FC910190F081E02DC6010995892B79F719
:1002C000C501DF91CF911F910F91FF90EF90DF90CB
:1002D000CF90BF90AF900895FC01538D448D252F92
:1002E00030E0842F90E0821B930B541710F0CF96D0
:1002F000089501970895FC01918D828D981761F002
:10030000A28DAE0FBF2FB11D5D968C91928D9F5F18
:100310009F73928F90E008958FEF9FEF0895FC01F7
:10032000918D828D981731F0828DE80FF11D858DAA
:1003300090E008958FEF9FEF0895FC01918D228D3D
:10034000892F90E0805C9F4F821B91098F739927C2
:1003500008958FEC96E00E949D0121E0892B09F41D
:1003600020E0822F089580E090E0892B29F00E9400
:10037000A90181110C9400000895FC01A48DA80F1F
:10038000B92FB11DA35ABF4F2C91848D90E00196D7
:100390008F739927848FA689B7892C93A089B189F7
:1003A0008C91837080648C93938D848D981306C098
:1003B0000288F389E02D80818F7D80830895EF92FC
:1003C000FF920F931F93CF93DF93EC0181E0888F0F
:1003D0009B8D8C8D98131AC0E889F989808185FFDF
:1003E00015C09FB7F894EE89FF896083E889F98981
:1003F00080818370806480839FBF81E090E0DF9183
:10040000CF911F910F91FF90EF900895F62E0B8DD5
:1004100010E00F5F1F4F0F731127E02E8C8D8E1190
:100420000CC00FB607FCFACFE889F989808185FFF7
:10043000F5CFCE010E94BD01F1CFEB8DEC0FFD2F6A
:10044000F11DE35AFF4FF0829FB7F8940B8FEA89B2
:10045000FB8980818062CFCFCF93DF93EC01888DC1
:100460008823B9F0AA89BB89E889F9898C9185FD2F
:1004700003C0808186FD0DC00FB607FCF7CF8C91BD
:1004800085FFF2CF808185FFEDCFCE010E94BD01B7
:10049000E9CFDF91CF910895833081F028F4813046
:1004A00099F08230A9F008958730A9F08830C9F01A
:1004B0008430B1F4809180008F7D03C080918000F2
:1004C0008F7780938000089584B58F7784BD0895D9
:1004D00084B58F7DFBCF8091B0008F778093B00083
:1004E00008958091B0008F7DF9CFCF93DF93282FAF
:1004F00030E0F901E458FF4F8491F901E255FF4FD4
:10050000D491F901E656FF4FC491CC23A1F081119B
:100510000E944C02EC2FF0E0EE0FFF1FE057FF4F60
:10052000A591B491EC91ED2381E090E009F480E095
:10053000DF91CF91089580E090E0FACF1F93CF93A1
:10054000DF93282F30E0F901E458FF4F8491F9013F
:10055000E255FF4FD491F901E656FF4FC491CC23E9
:10056000A9F0162F81110E944C02EC2FF0E0EE0F43
:10057000FF1FEE58FF4FA591B4918FB7F894EC91FF
:10058000111108C0D095DE23DC938FBFDF91CF918E
:100590001F910895DE2BF8CFCF93DF9390E0FC01FD
:1005A000E255FF4F249186569F4FFC01849188238A
:1005B000C9F090E0880F991FFC01E859FF4FA59101
:1005C000B491FC01EE58FF4FC591D49161110DC05B
:1005D0009FB7F8948C91209582238C93888128234F
:1005E00028839FBFDF91CF910895623051F49FB768
:1005F000F8943C91822F809583238C93E8812E2B55
:10060000EFCF8FB7F894EC912E2B2C938FBFEACFBE
:100610003FB7F8948091930690919406A091950627
:10062000B091960626B5A89B05C02F3F19F00196FC
:10063000A11DB11D3FBFBA2FA92F982F8827BC013C
:10064000CD01620F711D811D911D42E0660F771F64
:10065000881F991F4A95D1F708958F929F92AF9264
:10066000BF92CF92DF92EF92FF924B015C010E940A
:1006700008036B017C010E9408036C197D098E0937
:100680009F09683E734081059105A8F321E0821A15
:100690009108A108B10888EEC80E83E0D81EE11CBD
:1006A000F11C81149104A104B10429F7FF90EF908B
:1006B000DF90CF90BF90AF909F908F900895CF9292
:1006C000DF92EF92FF920F931F93CF93DF93CDB7FB
:1006D000DEB7C054D1400FB6F894DEBF0FBECDBF19
:1006E0002FB7F8948091CB069091CC06A091CD06BF
:1006F000B091CE062FBF4091860750918707609139
:100700008807709189078C019D01041B150B260B2E
:10071000370BB901A801403D57406105710590F4C0
:1007200080918E07C05CDE4F0FB6F894DEBF0FBE1F
:10073000CDBFDF91CF911F910F91FF90EF90DF9090
:10074000CF9008958093860790938707A09388079A
:10075000B0938907109281071092800710927F074B
:1007600010927E0710927D0762E0809182070E94BE
:10077000CC0261E070E080E090E00E942D0361E037
:10078000809182070E94CC0260E0809182070E94E3
:100790009E02809183078551823020F58BE291E1A2
:1007A0000197F1F762E0809182070E94CC0280916C
:1007B0008F0790E08230910538F0880F991F880FDD
:1007C000991F05970197F1F7F89480E00E948C003B
:1007D0006F3F7F4F8F4F9F4F61F410928E07789439
:1007E00080E0A0CF64E170E080E090E00E942D0303
:1007F000D9CF81E00E948C006F3F7F4F8F4F9F4F7A
:1008000061F38E010F5F1F4F6E018FEBC81A8EEFE1
:10081000D80A780180E00E948C00F7016083718320
:100820008283938381E00E948C00F7016483758347
:1008300086839783F8E0EF0EF11CEC14FD0451F76A
:10084000789430E020E0F801C080D180E280F3802D
:100850004481558166817781FFEFCF16DF06EF0671
:10086000FF0631F04F3F8FEF58076807780719F4FC
:1008700010928E07B5CFF90183E0F595E7958A953B
:10088000E1F7E358F84F8081880FC416D506E606D5
:10089000F70610F180832F5F3F4F085F1F4F28320C
:1008A000310589F64091810720917D0780917E076F
:1008B000280F3327331F80917F07280F311D809128
:1008C0008007820F932F911D99274817190681F6EB
:1008D00081E080938E0726CF8160DCCFCF92DF92BC
:1008E000EF92FF920E945F03882349F08091830773
:1008F0008B3028F08D3040F08551823030F160E04F
:1009000070E080EC9FE71CC060917E0770E090E093
:1009100080E00E94DE0F2DEC3CEC4CEC5DE30E948D
:100920003D106B017C0160917D0770E090E080E0FC
:100930000E94DE0F9B01AC01C701B6010E94961117
:10094000FF90EF90DF90CF90089560917D077091B8
:100950007E0776276727762790E080E00E94DC0FED
:100960002DEC3CEC4CEC5DE30E943D10E9CF209176
:100970004806260F3327331F21323105ECF420912E
:100980006C06FC0190E080E0243069F082E008957C
:10099000A09148062191AC01485D594FA40FB52F95
:1009A000B11D2C930196861798F380914806680F25
:1009B0006093480680E0089581E0089510926C06E7
:1009C00081E080936E0610926D0661E082E10E94E4
:1009D0009E0261E083E10E949E02E9EBF0E08081EB
:1009E0008E7F808380818D7F808388E48093B800B0
:1009F00085E48093BC000895CF93DF9391E09093BA
:100A000027068823B9F0C091B800D091BA00809130
:100A1000BC008A7B8093BC0060E082E10E949E0261
:100A200060E083E10E949E020E94DE04D093BA003F
:100A3000C093B800DF91CF9108950895E0919E068C
:100A400080919D06E81730F4F0E0EE5FF94F808169
:100A500090E008958FEF9FEF089590919E0680910A
:100A60009D062FEF3FEF981748F4E92FF0E0EE5F77
:100A7000F94F208130E09F5F90939E06C901089551
:100A800080919D0690919E06891B990B0895CF92A7
:100A9000DF92EF92FF920F931F93CF93DF937C012E
:100AA000CB018A0120910106222389F0EB016B0121
:100AB000C40ED51ECC15DD0569F06991D701ED9105
:100AC000FC910190F081E02DC7010995F3CF642FCF
:100AD0000E94B704C801DF91CF911F910F91FF9041
:100AE000EF90DF90CF900895CF93DF931F92CDB713
:100AF000DEB76983209101062223F9F020919B063D
:100B0000203258F021E030E0FC013383228390E072
:100B100080E00F90DF91CF91089580919C06E82F9F
:100B2000F0E0EF51FA4F998190838F5F80939C069C
:100B300080939B0681E090E0ECCF61E0CE010196CE
:100B40000E94B704F7CFCF92DF92EF92FF920F93FC
:100B50001F93CF93DF93FC01C48121E02093010612
:100B6000C093E00510929C0610929B068385682B2B
:100B70008CE697E00E947405D0919B06D13208F074
:100B800092C00E9408036B017C0180916C06811168
:100B900065C082E080936C0681E080936E068FEFE3
:100BA00080936B0610929006D0938F06A1EEB5E06D
:100BB000EFE6F6E080E0D81385C0109291068091B0
:100BC0009106CC0FC82BC093910680916D068130A1
:100BD00009F07CC010926D060E9408036B017C0135
:100BE000809191068093BB0080912306909124060A
:100BF000A0912506B0912606892B8A2B8B2B99F084
:100C00000E940803009123061091240620912506D6
:100C1000309126066C197D098E099F090617170762
:100C200028073907E0F18091BC0083FDD9CF85EC1E
:100C30008093BC000E9408036B017C0180916C06CC
:100C4000823009F445C080916B068F3F61F180913D
:100C50006B06803241F180916B0625C0809123069E
:100C600090912406A0912506B0912606892B8A2B07
:100C70008B2B09F48ACF0E94080300912306109160
:100C8000240620912506309126066C197D098E09CF
:100C90009F09061717072807390708F076CF8091B4
:100CA00022060E94FC0410929C0610929B06109251
:100CB0000106DF91CF911F910F91FF90EF90DF9090
:100CC000CF9008959D9191938F5F75CF85EEB0CFB2
:100CD0008091230690912406A0912506B0912606C6
:100CE000892B8A2B8B2B09F4A9CF0E940803009132
:100CF00023061091240620912506309126066C19B2
:100D00007D098E099F09061717072807390708F07C
:100D100095CFC5CF089590E080E008951F93CF93BD
:100D2000DF9360E0809179070E94CC0210E0D0E070
:100D3000C0E061E080917A070E949E0260E08091AD
:100D40007A070E949E02809179070E947502992776
:100D50000C2E01C0880F0A94EAF7182B2196C83090
:100D6000D10539F7812FDF91CF911F9108950F930E
:100D70001F93CF938C01C62F0E94A3056C2F646034
:100D8000C8010E94A3056C2F6B7FC8010E94A305B8
:100D900083EC90E00197F1F7CF911F910F910895A7
:100DA0000F931F93CF93DF938C01D62FC42F607FB7
:100DB000642B0E94B70680E1D89FB00111246C2BF0
:100DC000C801DF91CF911F910F910C94B706CF937B
:100DD000DF93CDB7DEB728970FB6F894DEBF0FBE0E
:100DE000CDBF98E0EAE0F1E0DE01119601900D92AE
:100DF0009A95E1F790919807961710F46FEF690FA5
:100E0000262F30E0220F331F41E050E04C0F5D1FD2
:100E1000240F351FF9016081680F606840E080E9A8
:100E200097E028960FB6F894DEBF0FBECDBFDF91D6
:100E3000CF910C94D00640E061E080E997E00E94F9
:100E4000D0068BE39FE10197F1F7089541E00E94FE
:100E5000D00681E090E00895FB0101900020E9F7C1
:100E60003197AF01461B570BDC01ED91FC910280DD
:100E7000F381E02D09948F929F92AF92BF92EF92EF
:100E8000FF920F931F93CF93DF93CDB7DEB7A19758
:100E90000FB6F894DEBF0FBECDBF7C01FA01CB01C7
:100EA00019A2223008F42AE08E010F5D1F4F822E16
:100EB000912CB12CA12CBF01A50194010E946411B9
:100EC000F901CA016A300CF5605DD8016E938D019D
:100ED000232B242B252B79F790E080E0109721F02D
:100EE000BD01C7010E942C07A1960FB6F894DEBF82
:100EF0000FBECDBFDF91CF911F910F91FF90EF906B
:100F0000BF90AF909F908F900895695CDECF4F9215
:100F10005F926F927F928F929F92AF92BF92CF9289
:100F2000DF92EF92FF920F931F93CF936B017C019F
:100F3000742EAC019B010E94A8126AE275E0811137
:100F400026C046015701E894B7F82FEF3FEF4FE76F
:100F50005FE7C501B4010E94A81281110CC02FEFF8
:100F60003FEF4FE75FE7C501B4010E94D70F6EE284
:100F700075E0181664F02FEF3FEF4FE75FE4C7010D
:100F8000B6010E94A3121816ACF462E375E080E982
:100F900097E0CF911F910F91FF90EF90DF90CF904E
:100FA000BF90AF909F908F907F906F905F904F9089
:100FB0000C942C072FEF3FEF4FE75FECC701B60112
:100FC0000E94D70F87FDE1CF20E030E0A901C701E3
:100FD000B6010E94D70F10E000E087FF0CC041E08F
:100FE0006DE280E997E00E94D006F7FAF094F7F8F6
:100FF000F09401E010E0C0E060E070E080E09FE38A
:101000007C1641F020E030E040E251E40E94021200
:10101000CF5FF6CFA70196010E9496114B015C01AC
:101020000E9474122B013C012AE0BC01A20180E95C
:1010300097E00E943B07080F191FCC23D9F1C30189
:10104000B2010E94DC0F9B01AC01C501B4010E94FA
:1010500095114B015C0141E06EE280E997E00E944E
:10106000D0060F5F1F4FC15028F120E030E040E272
:1010700051E4C501B4010E943D102B013C010E94C6
:1010800074124B01B12CA12C2AE0B501A40180E916
:1010900097E00E943B07080F191FC501B4010E9489
:1010A000DC0F9B01AC01C301B2010E9495114B0101
:1010B0005C01D9CFC801CF911F910F91FF90EF90A4
:1010C000DF90CF90BF90AF909F908F907F906F9068
:1010D0005F904F9008956115710511F00C942C07E5
:1010E00090E080E00895EF92FF920F931F93CF93CB
:1010F000DF93EC017B01198218821B821A821D8208
:101100001C82FB0101900020E9F731978F01061B3B
:10111000170BB8016F5F7F4F90E080E00E940014D2
:101120000097B9F0998388831B830A832C813D81C2
:10113000232B11F4FC0110821D830C83B7018881DD
:101140009981DF91CF911F910F91FF90EF900C94B7
:10115000C61488819981009711F00E947713198233
:1011600018821D821C821B821A82DF91CF911F91EF
:101170000F91FF90EF90089585ED8093BC008091D2
:10118000230690912406A0912506B0912606079685
:10119000A11DB11D23E0B695A795979587952A9532
:1011A000D1F72091BC0024FD03C010926C06089575
:1011B00040912306509124066091250670912606E1
:1011C000452B462B472B69F30097A105B10541F04C
:1011D0002AE22A95F1F700C00197A109B109E1CFF0
:1011E000809122060C94FC041F920F920FB60F926E
:1011F00011242F933F934F935F936F937F938F931C
:101200009F93AF93BF93EF93FF938FEC96E00E9471
:10121000BD01FF91EF91BF91AF919F918F917F9110
:101220006F915F914F913F912F910F900FBE0F9053
:101230001F9018951F920F920FB60F9211242F93A3
:101240008F939F93EF93FF93E091DF06F091E00679
:101250008081E091E506F091E60682FD1BC0908159
:101260008091E8068F5F8F732091E906821741F025
:10127000E091E806F0E0E153F94F958F8093E8069E
:10128000FF91EF919F918F912F910F900FBE0F9033
:101290001F9018958081F4CF1F920F920FB60F9276
:1012A00011242F933F938F939F93AF93BF9380917C
:1012B000CB069091CC06A091CD06B091CE06309190
:1012C000920623E0230F2D3758F50196A11DB11D7D
:1012D000209392068093CB069093CC06A093CD06E4
:1012E000B093CE068091930690919406A0919506B6
:1012F000B09196060196A11DB11D8093930690931F
:101300009406A0939506B0939606BF91AF919F91D6
:101310008F913F912F910F900FBE0F901F901895B6
:1013200026E8230F0296A11DB11DD2CF1F920F9266
:101330000FB60F9211242F933F934F935F936F93A8
:101340007F938F939F93AF93BF93EF93FF9380917E
:10135000B900887F803609F44AC0F0F5883209F474
:10136000A7C018F5803109F49BC0B8F4882309F4AC
:10137000F9C0883009F494C0FF91EF91BF91AF910B
:101380009F918F917F916F915F914F913F912F919D
:101390000F900FBE0F901F901895883109F488C0E8
:1013A000803251F780936B0614C0803409F49DC0DD
:1013B00040F48033B9F38833F9F680936B0685ECFB
:1013C000B0C0803509F485C0883509F496C08834EA
:1013D00099F60E94BC08D0CF883909F48CC038F542
:1013E000883729F050F4883611F0803729F683E0E9
:1013F00080936C0610926A0657C0883809F47BC047
:10140000803919F0803809F0B7CF80916A068032B0
:1014100008F071C0E0916A0681E08E0F80936A0641
:101420008091BB00F0E0E65BF94F80833DC0803BDC
:1014300039F0E0F4803A09F479C0883A09F09CCF99
:1014400084E080936C061092490610924806E09161
:101450009906F0919A0609958091480681110FC06E
:1014600081E0809348061092280609C0803C09F468
:10147000A6CF883C09F4A3CF883B09F07DCFE0914B
:10148000490681E08E0F80934906F0E0E85DF94F50
:1014900080818093BB00909149068091480629C0C5
:1014A000809191068093BB0085EC8093BC0064CF53
:1014B0009091900680918F06981758F5E0919006CC
:1014C00081E08E0F80939006F0E0E159F94F808122
:1014D000E9CFE091900681E08E0F80939006809195
:1014E000BB00F0E0E159F94F808390919006809124
:1014F0008F069817C8F285E8D8CFE091900681E072
:101500008E0F809390068091BB00F0E0E159F94F77
:10151000808380916E0681115CCF81E080936D069F
:1015200084EA8093BC0010926C0626CF85EC8093F1
:10153000BC0010926C0680916A06803230F4E09113
:101540006A06F0E0E65BF94F108260916A0670E08F
:10155000E0919706F09198068AE496E0099510923A
:101560006A060ACF10926B0634CFEFECF6E01382D6
:10157000128288EE93E0A0E0B0E084839583A68396
:10158000B7832EEF34E03183208325EC30E03587BC
:10159000248724EC30E03787268720EC30E0318B3D
:1015A000208B21EC30E0338B228B22EC30E0358B2A
:1015B000248B26EC30E0378B268B118E128E138E07
:1015C000148EECE6F7E01382128284839583A6835F
:1015D000B78380E195E091838083E0E9F7E01382AF
:1015E000128282E295E09183808387E2848380E1A6
:1015F000818782E082871386ADE7B7E015968C93EA
:1016000015978BE016968C931697E0EBF0E0E4913B
:101610001796EC931797ECE9F0E0E4911896EC93A9
:10162000189740E85EE360E070E01D964D935D938F
:101630006D937C9350970E94C70F62E070E00E9408
:10164000AD1290937C0780937B07E8E7F7E08AE090
:10165000808389E0818388E0828360E08AE00E9461
:101660009E0261E08AE00E94CC0260E089E00E9474
:10167000CC0260E088E00E949E0261E088E00C9469
:10168000CC02CF93DF9300D000D000D0CDB7DEB72F
:10169000789484B5826084BD84B5816084BD85B54D
:1016A000826085BD85B5816085BD80916E00816059
:1016B00080936E00109281008091810082608093FF
:1016C0008100809181008160809381008091800001
:1016D0008160809380008091B10084608093B1002C
:1016E0008091B00081608093B00080917A00846026
:1016F00080937A0080917A00826080937A00809152
:101700007A00816080937A0080917A00806880936B
:101710007A001092C10061E082E00E94CC02109237
:101720009E0610929D0610929C0610929B060E94A7
:10173000DE048DE391E090939A06809399068EE300
:1017400091E0909398068093970610929507809168
:101750009A07823018F098E0909395078093980745
:1017600062E370E080E090E00E942D0360919B07AF
:1017700080E997E00E94A30568EE73E080E090E0C6
:101780000E942D0360E380E997E00E94B7060BE416
:1017900016E4C8010197F1F760E380E997E00E9441
:1017A000B706C8010197F1F760E380E997E00E946E
:1017B000B70683E592E00197F1F760E280E997E0F0
:1017C0000E94B70660919507606240E080E997E06B
:1017D0000E94D00684E08093960740E06CE080E9A8
:1017E00097E00E94D0060E941B0712E01093970713
:1017F00040E066E080E997E00E94D00640E062E0C9
:1018000080E997E00E94D0068BE39FE10197F1F712
:1018100088E080939B0760E080E997E00E94A30541
:10182000E091DF06F091E0061083E091DB06F09195
:10183000DC061082E091DD06F091DE068FEC8083FD
:101840001092E706E091E306F091E40686E08083DB
:10185000E091E106F091E206808180618083E09171
:10186000E106F091E206808188608083E091E106E4
:10187000F091E206808180688083E091E106F0913A
:10188000E20680818F7D808362E0809182070E94E2
:10189000CC022FB7F8948091CB069091CC06A09102
:1018A000CD06B091CE062FBF805D9740A109B1094A
:1018B0008093860790938707A0938807B093890742
:1018C00087E380938F0760E084E00E94CC0260E0B1
:1018D00085E00E94E70666E375E080E997E00E94F4
:1018E0006B0861E084E00E94E7066EE375E080E942
:1018F00097E00E946B0868EB7BE080E090E00E943C
:101900002D030E941B07FBE02F2E312CEE24E394C5
:10191000F12C84E00E947502892BA1F40091C90684
:101920001091CA0664EF71E080E090E00E942D0300
:101930000F5F1F4F033011050CF070C11093CA06E2
:101940000093C9068091C9069091CA06813091051D
:1019500009F473C08230910509F4BDC0892B09F0E8
:1019600075C20E945F03812C912C70ECA72E7FE73B
:10197000B72E882321F00E94C4004B015C010E9415
:101980006E042B013C0160E083E00E94E70668E4FE
:1019900075E080E997E00E946B0842E0C501B40160
:1019A0000E94870784E00E947502892B89F46CE20B
:1019B00071E080E090E00E942D038091C906909133
:1019C000CA069701281B390B3093CA062093C90613
:1019D00061E083E00E94E7066EE475E080E997E04D
:1019E0000E946B0842E0C301B2010E94870763E5D1
:1019F00075E080E997E00E946B0864EF71E080E099
:101A000090E00E942D0360E087E00E94E70665E514
:101A100075E080E997E00E946B0861E086E00E9433
:101A2000E70665E575E080E997E00E946B0864EFE2
:101A300071E080E090E00E942D030E94C70F6AE0F1
:101A400070E00E94AD1224E6289F8001299F100DAE
:101A500011240E5E1E4FB8018FEC96E00E946B08B9
:101A60006DED75E08FEC96E00E946B081092A00679
:101A700010929F06F80101900020E9F7CF01801B2A
:101A8000910B84509048880F991F20919F063091A8
:101A9000A0062817390790F484E00E947502009789
:101AA00009F0C1C064EF71E080E090E00E942D0376
:101AB00082E090E09093CA068093C9060E941B07BB
:101AC00080917B0790917C07892B09F02BC1F092C4
:101AD0007C07E0927B077090780760E080917A073E
:101AE0000E949E0261E0872D0E949E02C101019723
:101AF000F1F761E0809179070E94CC0210E000E0EC
:101B00006FEB70E0002E02C0759567950A94E2F7BE
:101B10006170809179070E949E0261E080917A074E
:101B20000E949E0260E00730110509F000C180911B
:101B300079070E94CC020F5F1F4F0830110501F793
:101B40000E948E06982F929597701AE08F70A82E9B
:101B5000919FA00C11240E948E06982F92959F7041
:101B60008F70B82E919FB00C11240E948E06282FE2
:101B700030E087FFE1C085FB222720F90CE0209FA1
:101B8000202D11248F70082F020F0E948E06982F8F
:101B900092959F702AE0D22E8F70882E9D9D800C8A
:101BA00011240E948E06982F92959F708F70982E08
:101BB0009D9D900C11240E948E06982F92959F70E7
:101BC0008F70182F9D9D100D11240E948E06982F46
:101BD00092959F708F709D9D800D1124C82ED12CE1
:101BE00090E3C91A98EFD90A60E0872D0E949E02FF
:101BF000C1010197F1F7115060E975E0173008F065
:101C0000A7C0E12FF0E0E95FF14F0C94C112A60EDE
:101C1000330F360F390F3C0F3F0F420F1092CA0699
:101C20001092C9068FCE4C01990FAA08BB082AE072
:101C3000B501A401B7FE0DC06DE28FEC96E00E94E5
:101C4000DF0144275527BA01481959096A097B0958
:101C50002AE08FEC96E00E943B070E945F03812CF4
:101C6000912C50ECA52E5FE7B52E882321F00E9421
:101C7000C4004B015C010E946E042B013C01C0902A
:101C80007B07D0907C0761E06C1983E00E94E70637
:101C9000CA94CD2881F568E475E080E997E00E9458
:101CA0006B0842E0C501B4010E948707C0909F06FF
:101CB000D090A00660917B0720E1C216D1046CF1A0
:101CC00080E00E94E70630E1C316D10409F0DDC0D0
:101CD000B12CA12CCA14DB040CF4E9C0F801EA0D04
:101CE000FB1D41E0608180E997E00E94D0068FEF04
:101CF000A81AB80AEFCF6EE475E080E997E00E9479
:101D00006B0842E0C301B2010E94870763E575E0FA
:101D100080E997E00E946B08C9CF80E18C190E948E
:101D2000E706D6CF10927C0710927B07D4CE809125
:101D30007A070E949E02FFCE44E0359527954A958A
:101D4000E1F72370219F202D11241CCF67E575E05A
:101D5000CE0101960E9473088A818F9389818F93A7
:101D60001F92AF921F92BF921F920F931F928F925A
:101D70001F929F92DF92CF92EEE9F5E0FF93EF93EF
:101D80001F9284E18F9385EB96E09F938F930E943F
:101D9000CD141F928F921F929F92DF92CF922FEBC2
:101DA00035E03F932F931F921AE01F93EBEAF6E082
:101DB000FF93EF930E94CD140FB6F894DEBF0FBED1
:101DC000CDBF1F92AF921F92BF921F920F93EEEC66
:101DD000F5E0FF93EF931F921F9381EA96E09F93A4
:101DE0008F930E94CD1465EB76E08FEC96E00E9415
:101DF0002C076CED75E08FEC96E00E942C070E949A
:101E00001B0763E080E00E94E7066BEA76E080E96A
:101E100097E00E946B0860E081E00E94E70661EABB
:101E200076E080E997E00E946B0889819A810FB67D
:101E3000F894DEBF0FBECDBF009711F00E9477135C
:101E400064EF71E080E090E00E942D0380E090E07C
:101E5000892B09F45ECD0E94A901882309F456CD8F
:101E60000E94000053CD6EE575E072CF65E675E027
:101E70006FCF6DE675E06CCF67E775E069CF60E81E
:101E800075E066CF67E875E063CFF8010190002048
:101E9000E9F73197E01BF10B719778F0B6016051CB
:101EA0007109600F711F80E997E00E946B088091B3
:101EB0009F069091A006419774F0F80101900020D0
:101EC000E9F73197E01BF10B719728F4B80180E92D
:101ED00097E00E946B0868E572E080E090E00E9465
:101EE0002D0380919F069091A00601969093A006E5
:101EF00080939F06BFCD8F929F92AF92BF92CF9259
:101F0000DF92EF92FF92CF93DF93EC0168817981AA
:101F10008A819B81611571058105910521F464E237
:101F200079ED8BE597E02DE133EF41E050E00E9441
:101F3000FB1049015A019B01AC01A7EAB1E40E94E0
:101F40001A116B017C01ACEEB4EFA50194010E9463
:101F50002811DC01CB018C0D9D1DAE1DBF1DB7FFEF
:101F600003C00197A109B04888839983AA83BB83E2
:101F70009F77DF91CF91FF90EF90DF90CF90BF9050
:101F8000AF909F908F9008950E947B0F089580E0FE
:101F900091E00E947B0F0895B0E0A0E080930001E3
:101FA00090930101A0930201B093030108950E9450
:101FB000191008F481E00895E89409C097FB3EF4F5
:101FC00090958095709561957F4F8F4F9F4F992386
:101FD000A9F0F92F96E9BB279395F6958795779504
:101FE0006795B795F111F8CFFAF4BB0F11F460FFC4
:101FF0001BC06F5F7F4F8F4F9F4F16C0882311F01C
:1020000096E911C0772321F09EE8872F762F05C02F
:10201000662371F096E8862F70E060E02AF09A95CA
:10202000660F771F881FDAF7880F9695879597F9BF
:102030000895990F0008550FAA0BE0E8FEEF161659
:102040001706E807F907C0F012161306E407F507AC
:1020500098F0621B730B840B950B39F40A2661F020
:10206000232B242B252B21F408950A2609F4A140C3
:10207000A6958FEF811D811D08950E9450100C942C
:10208000C1100E94B31038F00E94BA1020F09523BE
:1020900011F00C94AA100C94B01011240C94F510AB
:1020A0000E94D21070F3959FC1F3950F50E0551F19
:1020B000629FF001729FBB27F00DB11D639FAA279D
:1020C000F00DB11DAA1F649F6627B00DA11D661FEC
:1020D000829F2227B00DA11D621F739FB00DA11D0D
:1020E000621F839FA00D611D221F749F3327A00DC7
:1020F000611D231F849F600D211D822F762F6A2F63
:1021000011249F5750409AF0F1F088234AF0EE0FC7
:10211000FF1FBB1F661F771F881F91505040A9F7F4
:102120009E3F510580F00C94AA100C94F5105F3F6F
:10213000E4F3983ED4F3869577956795B795F79530
:10214000E7959F5FC1F7FE2B880F911D96958795A8
:1021500097F9089597F99F6780E870E060E0089527
:102160009FEF80EC089500240A94161617061806AF
:102170000906089500240A9412161306140605068B
:102180000895092E0394000C11F4882352F0BB0F1C
:1021900040F4BF2B11F460FF04C06F5F7F4F8F4F7F
:1021A0009F4F089557FD9058440F551F59F05F3FBA
:1021B00071F04795880F97FB991F61F09F3F79F069
:1021C00087950895121613061406551FF2CF4695EB
:1021D000F1DF08C0161617061806991FF1CF86956D
:1021E0007105610508940895E894BB276627772751
:1021F000CB0197F90895052E97FB1EF400940E94D9
:10220000121157FD07D00E94641107FC03D04EF451
:102210000C94121150954095309521953F4F4F4F9A
:102220005F4F089590958095709561957F4F8F4F82
:102230009F4F08950E948611A59F900DB49F900D09
:10224000A49F800D911D11240895B7FF0C941A11BD
:102250000E941A11821B930B08952F923F924F9266
:102260005F926F927F928F929F92AF92BF92CF9226
:10227000DF92EF92FF920F931F93CF93DF93CDB72F
:10228000DEB7CA1BDB0B0FB6F894DEBF0FBECDBFA7
:1022900009942A88398848885F846E847D848C8478
:1022A0009B84AA84B984C884DF80EE80FD800C8181
:1022B0001B81AA81B981CE0FD11D0FB6F894DEBF64
:1022C0000FBECDBFED010895A1E21A2EAA1BBB1BC4
:1022D000FD010DC0AA1FBB1FEE1FFF1FA217B307F2
:1022E000E407F50720F0A21BB30BE40BF50B661F08
:1022F000771F881F991F1A9469F7609570958095CC
:1023000090959B01AC01BD01CF010895A29FB00142
:10231000B39FC001A39F700D811D1124911DB29F19
:10232000700D811D1124911D08955058BB27AA27B7
:102330000E94AD110C94C1100E94B31038F00E949D
:10234000BA1020F039F49F3F19F426F40C94B01021
:102350000EF4E095E7FB0C94AA10E92F0E94D2102E
:1023600058F3BA17620773078407950720F079F4CA
:10237000A6F50C94F4100EF4E0950B2EBA2FA02DB8
:102380000B01B90190010C01CA01A0011124FF2722
:10239000591B99F0593F50F4503E68F11A16F0401D
:1023A000A22F232F342F4427585FF3CF469537951C
:1023B0002795A795F0405395C9F77EF41F16BA0BE1
:1023C000620B730B840BBAF09150A1F0FF0FBB1F8F
:1023D000661F771F881FC2F70EC0BA0F621F731FD8
:1023E000841F48F4879577956795B795F7959E3F35
:1023F00008F0B0CF9395880F08F09927EE0F9795C6
:10240000879508950E9416120C94C1100E94BA106C
:1024100058F00E94B31040F029F45F3F29F00C946B
:10242000AA1051110C94F5100C94B0100E94D21007
:1024300068F39923B1F3552391F3951B550BBB27F3
:10244000AA2762177307840738F09F5F5F4F220F38
:10245000331F441FAA1FA9F335D00E2E3AF0E0E82F
:1024600032D091505040E695001CCAF72BD0FE2F79
:1024700029D0660F771F881FBB1F2617370748070D
:10248000AB07B0E809F0BB0B802DBF01FF279358C5
:102490005F4F3AF09E3F510578F00C94AA100C94CF
:1024A000F5105F3FE4F3983ED4F3869577956795F2
:1024B000B795F7959F5FC9F7880F911D96958795FA
:1024C00097F90895E1E0660F771F881FBB1F621719
:1024D00073078407BA0720F0621B730B840BBA0BD7
:1024E000EE1F88F7E09508950E94DA1088F09F5754
:1024F00098F0B92F9927B751B0F0E1F0660F771F28
:10250000881F991F1AF0BA95C9F714C0B13091F01D
:102510000E94F410B1E008950C94F410672F782F06
:102520008827B85F39F0B93FCCF3869577956795E2
:10253000B395D9F73EF490958095709561957F4F4E
:102540008F4F9F4F08950E94191008F48FEF089540
:102550000E941910880B990B089597FB072E16F40B
:10256000009407D077FD09D00E94C71207FC05D060
:102570003EF4909581959F4F0895709561957F4F9A
:102580000895EE0FFF1F0590F491E02D0994AA1B0A
:10259000BB1B51E107C0AA1FBB1FA617B70710F04E
:1025A000A61BB70B881F991F5A95A9F78095909580
:1025B000BC01CD0108950F931F93CF93DF93823019
:1025C000910510F482E090E0E0919E07F0919F0762
:1025D00030E020E0B0E0A0E0309799F4211531051B
:1025E00009F44AC0281B390B24303105D8F58A81FB
:1025F0009B816115710589F1FB0193838283FE0143
:1026000011C0408151810281138148175907E0F0C0
:102610004817590799F4109761F012960C93129786
:1026200013961C933296CF01DF91CF911F910F919A
:10263000089500939E0710939F07F4CF211531054D
:1026400051F04217530738F0A901DB019A01BD018F
:10265000DF01F801C1CFEF01F9CF90939F0780937D
:102660009E07CDCFFE01E20FF31F8193919322507D
:10267000310939832883D7CF20919C0730919D075A
:10268000232B41F4209106013091070130939D07DF
:1026900020939C07209104013091050121153105FB
:1026A00041F42DB73EB74091080150910901241B18
:1026B000350BE0919C07F0919D07E217F307A0F41A
:1026C0002E1B3F0B2817390778F0AC014E5F5F4F88
:1026D0002417350748F04E0F5F1F50939D07409316
:1026E0009C07819391939FCFF0E0E0E09CCFCF9344
:1026F000DF930097E9F0FC01329713821282A091D8
:102700009E07B0919F07ED0130E020E01097A1F403
:1027100020813181820F931F20919C0730919D076A
:102720002817390709F061C0F0939D07E0939C07D3
:10273000DF91CF910895EA01CE17DF07E8F54A81CE
:102740005B819E0141155105B1F7E901FB83EA83E5
:1027500049915991C40FD51FEC17FD0761F4808191
:1027600091810296840F951FE90199838883828164
:1027700093819B838A83F0E0E0E012968D919C9197
:1027800013970097B9F52D913C911197CD010296C1
:10279000820F931F20919C0730919D0728173907BE
:1027A00039F6309751F510929F0710929E07B0931B
:1027B0009D07A0939C07BCCFD383C28340815181E6
:1027C000840F951FC817D90761F44E5F5F4F88814A
:1027D0009981480F591F518340838A819B8193833C
:1027E00082832115310509F0B0CFF0939F07E09364
:1027F0009E079ECFFD01DC01C0CF13821282D7CF8E
:10280000B0E0A0E0E6E0F4E10C942F118C01009719
:1028100051F4CB010E94DB128C01C801CDB7DEB7A9
:10282000E0E10C944B11FC01E60FF71F9C012250D4
:102830003109E217F30708F49DC0D901CD91DC916D
:102840001197C617D70798F0C530D10530F3CE01E0
:1028500004978617970708F3C61BD70B2297C193D7
:10286000D1936D937C93CF010E947713D6CF5B01F8
:10287000AC1ABD0A4C018C0E9D1EA0919E07B09112
:102880009F07512C412CF12CE12C109731F58091B0
:102890009C0790919D078815990509F05CC0461624
:1028A000570608F058C080910401909105010097E7
:1028B00041F48DB79EB74091080150910901841BE6
:1028C000950BE817F90708F055C0F0939D07E093C2
:1028D0009C07F90171836083A0CF8D919C91119722
:1028E00012966C90129713967C901397A815B905C1
:1028F00059F56C0142E0C40ED11CCA14DB0420F16E
:10290000AC014A195B09DA011296159780F06282D0
:10291000738251834083D9016D937C93E114F10458
:1029200071F0D7011396FC93EE93129776CF22960F
:102930008C0F9D1FF90191838083F301EFCFF093FA
:102940009F07E0939E0769CF4816590608F42C01AB
:102950007D01D3019ACFCB010E94DB127C0100974D
:1029600049F0AE01B8010E94BD14C8010E9477135E
:10297000870153CF10E000E050CFFB01DC0102C023
:1029800001900D9241505040D8F70895FB01DC01B1
:1029900001900D920020E1F70895AEE0B0E0E3ED84
:1029A000F4E10C943B110D891E898F89988D26E0E6
:1029B0002C831A83098397FF02C080E090E8019777
:1029C0009E838D83AE01455E5F4F698D7A8DCE010A
:1029D00001960E94FD144D815E8157FD0AC02F8132
:1029E0003885421753070CF49A01020F131FF801A0
:1029F00010822E96E4E00C945711ABE0B0E0E3E0D7
:102A0000F5E10C942D117C013B018A01FC01178238
:102A10001682838181FFC8C1CE0101965C01F70156
:102A20009381F30193FD859193FF81913F01882369
:102A300009F453C1853239F493FD859193FF819157
:102A40003F01853229F4B70190E00E94ED16E7CFEF
:102A5000912C212C312CFFE1F31538F08B3211F140
:102A600090F4803209F1833229F137FC3CC020ED2B
:102A7000280F2A3050F536FE20C08AE0989E200D9F
:102A80001124922E06C08D3291F0803371F7689434
:102A900030F8F30193FD859193FF81913F018111FE
:102AA000DACF21C0689431F8689432F8F2CF689494
:102AB00033F8EFCF689434F8ECCFEAE02E9E200D87
:102AC0001124222E689435F8E4CF8E3229F436FC96
:102AD00004C1689436F8DDCF8C3619F4689437F861
:102AE000D8CF8836B1F2982F9F7D95549330E0F07F
:102AF0008336A1F18337C1F1833509F063C0280122
:102B0000F2E04F0E511CF801C080D180692D70E0B9
:102B100036FC02C06FEF7FEFC6010E94D7164C0152
:102B2000689437F882010AC00C5F1F4FFFE3F983F6
:102B300088248394912C6501E89437F833FE2DC0E6
:102B4000522C8114910471F5552009F468CFB70116
:102B500080E290E00E94ED165A94F6CFF801808151
:102B600089830E5F1F4FE4CF2801F2E04F0E511C06
:102B7000F801C080D180692D70E036FC02C06FEF93
:102B80007FEFC6010E94E2164C018201D5CFB7014A
:102B900080E290E00E94ED162A942814190409F0AE
:102BA000B0F7CECFF60137FC859137FE81916F01EA
:102BB000B70190E00E94ED1651105A94F1E08F1A7F
:102BC0009108BFCF843619F0893609F077C0F80133
:102BD00037FE6BC060817181828193810C5F1F4FD2
:102BE000F32DFF763F2E97FF09C090958095709545
:102BF00061957F4F8F4F9F4F689437F82AE030E000
:102C0000A5010E941D17C82ECA188C2C432C36FE15
:102C10000CC0E89440F8C91440F434FE05C032FCFE
:102C200003C0F32DFE7E4F2E892C44FE95C0FE017D
:102C3000EC0DF11D8081803309F087C0242D297EA1
:102C4000422E842D8870582E43FC95C040FE8FC0C4
:102C50009C2C821418F42C0C922C981844FE91C0D1
:102C6000B70180E390E00E94ED1642FE09C088E7BC
:102C700090E041FE02C088E590E0B7010E94ED16A9
:102C8000C91408F48AC0CA94D12C9FEFC91AD90A72
:102C9000CA0CDB1CF60182916F01B70190E00E9423
:102CA000ED16AC14BD04B1F74FCF60817181072ED2
:102CB000000C880B990B0E5F1F4F92CFD32CE8941A
:102CC000D4F82AE030E0853739F1232D297FD22E40
:102CD0008F3601F148F48835A9F0F7018681978194
:102CE0002B96E2E10C944911803749F08837A9F717
:102CF000D4FE02C06894D2F820E130E00DC06894A0
:102D0000D4F8F6CF34FE03C0822F8660D82E20E19F
:102D100032E002C028E030E0F801D7FE0FC0608149
:102D20007181828193810C5F1F4FA5010E941D1745
:102D3000C82ECA183D2CE89437F867CF608171819E
:102D400090E080E00E5F1F4FF0CF42FC02C0839402
:102D500078CF8394839475CF842D867809F471CFCE
:102D6000F6CFB70180E290E00E94ED1683948214C2
:102D7000C0F3512C73CF522C5818821408F46ECF24
:102D8000F8CF842D867809F47BCF8BE241FE80E278
:102D900047FC8DE2B70190E071CFB70180E390E08E
:102DA0000E94ED169A946CCF8FEF9FEF99CFFC01A4
:102DB0000590615070400110D8F7809590958E0F66
:102DC0009F1F0895FC016150704001900110D8F7D9
:102DD000809590958E0F9F1F08950F931F93CF930B
:102DE000DF93182F092FEB018B8181FD09C01FEFA5
:102DF0000FEF812F902FDF91CF911F910F910895A9
:102E000082FF14C02E813F818C819D812817390754
:102E10003CF4E881F981CF0101969983888310837E
:102E20008E819F8101969F838E83E3CFE885F9850C
:102E3000812F0995892BA1F3DACFFA01AA2728302F
:102E400051F1203181F1E8946F936E7F6E5F7F4F77
:102E50008F4F9F4FAF4FB1E03ED0B4E03CD0670FF3
:102E6000781F891F9A1FA11D680F791F8A1F911D46
:102E7000A11D6A0F711D811D911DA11D20D009F496
:102E800068943F912AE0269F11243019305D3193D8
:102E9000DEF6CF010895462F4770405D4193B3E0C1
:102EA0000FD0C9F7F6CF462F4F70405D4A3318F068
:102EB000495D31FD4052419302D0A9F7EACFB4E019
:102EC000A6959795879577956795BA95C9F70097D1
:102ED0006105710508959B01AC010A2E0694579572
:102EE000479537952795BA95C9F7620F731F841FC9
:0A2EF000951FA01D0895F894FFCF70
:102EFA00010000000000A00780000000400014004C
:102F0A0054004861707079204C756E6172204E656C
:102F1A00772059656172212000000000000000003E
:102F2A000000000000000000000000000000000097
:102F3A000000000000000000000000000000000087
:102F4A000000000000000000000000000000000077
:102F5A000000000000000000000000000000000067
:102F6A000000000000005769736820596F752047F8
:102F7A006F6F644C75636B20546F64617920000035
:102F8A000000000000000000000000000000000037
:102F9A000000000000000000000000000000000027
:102FAA000000000000000000000000000000000017
:102FBA000000000000000000000000000000000007
:102FCA00000000000000000000002A4861707079CB
:102FDA00204E657720596561722A200000000000A2
:102FEA0000000000000000000000000000000000D7
:102FFA0000000000000000000000000000000000C7
:10300A0000000000000000000000000000000000B6
:10301A0000000000000000000000000000000000A6
:10302A0000000000000000000000000000004861ED
:10303A00707079204C756E6172204E6577205965E3
:10304A006172200000000000000000000000000083
:10305A000000000000000000000000000000000066
:10306A000000000000000000000000000000000056
:10307A000000000000000000000000000000000046
:10308A000000000000000000000000000000000036
:10309A000000486170707920537072696E6720462B
:1030AA006573746976616C212000000000000000DD
:1030BA000000000000000000000000000000000006
:1030CA0000000000000000000000000000000000F6
:1030DA0000000000000000000000000000000000E6
:1030EA0000000000000000000000000000000000D6
:1030FA00000000000000686F706520796F75206617
:10310A00696E6420796F757220706F74206F662003
:10311A00676F6C64200000000000000000000000DF
:10312A000000000000000000000000000000000095
:10313A000000000000000000000000000000000085
:10314A000000000000000000000000000000000075
:10315A00000000000000000000004D6179206D6150
:10316A006E7920666F7274756E65732066696E6417
:10317A002074686569722077617920746F20796F8D
:10318A00752120000000000000000000000000007F
:10319A000000000000000000000000000000000025
:1031AA000000000000000000000000000000000015
:1031BA00000000000000000000000000000048615C
:1031CA0076652061207468726976696E6720616E1F
:1031DA0064206861707079206E6577207965617204
:1031EA0020000000000000000000000000000000B5
:1031FA0000000000000000000000000000000000C5
:10320A0000000000000000000000000000000000B4
:10321A0000000000000000000000000000000000A4
:10322A00000057697368696E6720796F75206D6150
:10323A006E7920667574757265207375636365733C
:10324A007365732E200000000000000000000000DB
:10325A000000000000000000000000000000000064
:10326A000000000000000000000000000000000054
:10327A000000000000000000000000000000000044
:10328A000000000000005769736820796F75204CB0
:10329A006F6E67657669747920616E64206865610E
:1032AA006C7468212000000000000000000000008B
:1032BA000000000000000000000000000000000004
:1032CA0000000000000000000000000000000000F4
:1032DA0000000000000000000000000000000000E4
:1032EA000000000000000000000000000000DF01F4
:1032FA003F016C012C029D017B018F01000000003F
:10330A00740547058B061D0540052D051E050000A1
:10331A00000026073F018B068A066E616E00696E01
:10332A0066006F76660057656C636F6D650056655B
:10333A007220322E302E300054454D503A004855F6
:10334A004D3A002500200053756E646179004D6F77
:10335A006E646179005475657364617900576564B8
:10336A006E6573646179005468757273646179007B
:10337A004672696461790053617475726461790097
:10338A0028756E6B6E6F776E20646179290025301F
:10339A0034642D253032642D2530326420253032B4
:1033AA00643A253032643A25303264202573002588
:1033BA003034642D253032642D25303264003032A9
:1033CA00643A253032643A25303264000D0A00002E
:00000001FF
